:020000040000FA
:020000000A28CC
:10000800FE00030EC4000A08C50017280B28CD01FE
:10001800CE01CF01D001D101D201D301D401D50144
:10002800D601830171288C1C45288C100130CF071C
:100038000318D00A0030D007E8304F060330031900
:100048005006031D2F280130CD070318CE0A0030B3
:10005800CE07CF01D0013C304D064E04031D3A288F
:100068000130C3004308D607CD01CE011E30560625
:10007800031D45280130C3004308D5075508B6209D
:10008800D6010B1D57280B1105194E280130C30046
:100098004308D10714305106031D5728D1010130F8
:1000A800C3004308D2008B1C6A28D1018B1013119E
:1000B800530303196428FF30C6000030C7006628C0
:1000C800C601C7014608C3004308D30045088A0093
:1000D800440E8300FE0E7E0E0900F920DD20EA2082
:1000E800F320CF205203031D7C28D2019620CF2075
:1000F8005303031D7628871407143130CC00B2301F
:10010800CB00CB0B8528CC0B852800008710071067
:100118003130CC00B230CB00CB0B9028CC0B9028E0
:1001280000007628CA01871407141130C9003A3034
:10013800C800C80B9D28C90B9D2800008710071010
:100148001130C9003A30C800C80BA828C90BA82824
:1001580000000130C8004808CA0714304A020318D2
:1001680008009728C2004218C52887140714A3302E
:10017800C1005530C000C00BBF28C10BBF28871075
:10018800071013304206031D08000130C000400864
:10019800D300D50108000B1713118C1013109310FE
:1001A80013139312131293118D14FF309200131529
:1001B8000800061086100615071008108810081188
:1001C8008E130910891409158911080081010B1172
:1001D8008B168E128E110E148E140E1508000B1726
:1001E8000B160E138B108B17080010139016101691
:0201F8000800FD
:02400E00E03C94
:00000001FF
